{
  "contractName": "TestPayable",
  "abi": [
    {
      "anonymous": false,
      "inputs": [
        {
          "indexed": true,
          "internalType": "address",
          "name": "previousOwner",
          "type": "address"
        },
        {
          "indexed": true,
          "internalType": "address",
          "name": "newOwner",
          "type": "address"
        }
      ],
      "name": "OwnershipTransferred",
      "type": "event"
    },
    {
      "anonymous": false,
      "inputs": [
        {
          "indexed": false,
          "internalType": "string",
          "name": "_test",
          "type": "string"
        }
      ],
      "name": "evtEmit",
      "type": "event"
    },
    {
      "inputs": [],
      "name": "owner",
      "outputs": [
        {
          "internalType": "address",
          "name": "",
          "type": "address"
        }
      ],
      "stateMutability": "view",
      "type": "function",
      "constant": true
    },
    {
      "inputs": [],
      "name": "renounceOwnership",
      "outputs": [],
      "stateMutability": "nonpayable",
      "type": "function"
    },
    {
      "inputs": [
        {
          "internalType": "address",
          "name": "newOwner",
          "type": "address"
        }
      ],
      "name": "transferOwnership",
      "outputs": [],
      "stateMutability": "nonpayable",
      "type": "function"
    },
    {
      "stateMutability": "payable",
      "type": "receive",
      "payable": true
    },
    {
      "inputs": [],
      "name": "getOwner",
      "outputs": [
        {
          "internalType": "address",
          "name": "owner",
          "type": "address"
        }
      ],
      "stateMutability": "pure",
      "type": "function",
      "constant": true
    },
    {
      "inputs": [],
      "name": "passEther",
      "outputs": [],
      "stateMutability": "payable",
      "type": "function",
      "payable": true
    },
    {
      "inputs": [],
      "name": "withdraw",
      "outputs": [],
      "stateMutability": "nonpayable",
      "type": "function"
    },
    {
      "inputs": [],
      "name": "testEmit",
      "outputs": [],
      "stateMutability": "nonpayable",
      "type": "function"
    },
    {
      "inputs": [
        {
          "internalType": "string",
          "name": "str",
          "type": "string"
        }
      ],
      "name": "testPayableEmit",
      "outputs": [],
      "stateMutability": "nonpayable",
      "type": "function"
    },
    {
      "inputs": [
        {
          "internalType": "string",
          "name": "str",
          "type": "string"
        }
      ],
      "name": "testPayableReturn",
      "outputs": [
        {
          "internalType": "string",
          "name": "rtn",
          "type": "string"
        }
      ],
      "stateMutability": "pure",
      "type": "function",
      "constant": true
    }
  ],
  "bytecode": "0x608060405234801561001057600080fd5b5060006100216100c460201b60201c565b9050806000806101000a81548173ffffffffffffffffffffffffffffffffffffffff021916908373ffffffffffffffffffffffffffffffffffffffff1602179055508073ffffffffffffffffffffffffffffffffffffffff16600073ffffffffffffffffffffffffffffffffffffffff167f8be0079c531659141344cd1fd0a4f28419497f9722a3daafe3b4186f6b6457e060405160405180910390a3506100cc565b600033905090565b610be5806100db6000396000f3fe60806040526004361061008a5760003560e01c8063893d20e811610059578063893d20e8146100f75780638da5cb5b14610122578063db7322791461014d578063deed845914610164578063f2fde38b146101a157610091565b80633ccfd60b1461009657806340a9f113146100ad5780636cbbc41c146100b7578063715018a6146100e057610091565b3661009157005b600080fd5b3480156100a257600080fd5b506100ab6101ca565b005b6100b5610296565b005b3480156100c357600080fd5b506100de60048036038101906100d9919061074b565b6102e6565b005b3480156100ec57600080fd5b506100f5610320565b005b34801561010357600080fd5b5061010c61045a565b60405161011991906108bb565b60405180910390f35b34801561012e57600080fd5b5061013761045f565b60405161014491906108bb565b60405180910390f35b34801561015957600080fd5b50610162610488565b005b34801561017057600080fd5b5061018b6004803603810190610186919061074b565b6104bf565b60405161019891906108d6565b60405180910390f35b3480156101ad57600080fd5b506101c860048036038101906101c3919061071e565b6104e8565b005b6101d2610691565b73ffffffffffffffffffffffffffffffffffffffff166101f061045f565b73ffffffffffffffffffffffffffffffffffffffff1614610246576040517f08c379a000000000000000000000000000000000000000000000000000000000815260040161023d90610938565b60405180910390fd5b61024e61045f565b73ffffffffffffffffffffffffffffffffffffffff166108fc479081150290604051600060405180830381858888f19350505050158015610293573d6000803e3d6000fd5b50565b61029e61045f565b73ffffffffffffffffffffffffffffffffffffffff166108fc349081150290604051600060405180830381858888f193505050501580156102e3573d6000803e3d6000fd5b50565b7fc357dd068c900fe20e872ba6b6b6de135a3b6fbdfe0e0cc2b8ece116c7e2fde88160405161031591906108d6565b60405180910390a150565b610328610691565b73ffffffffffffffffffffffffffffffffffffffff1661034661045f565b73ffffffffffffffffffffffffffffffffffffffff161461039c576040517f08c379a000000000000000000000000000000000000000000000000000000000815260040161039390610938565b60405180910390fd5b600073ffffffffffffffffffffffffffffffffffffffff1660008054906101000a900473ffffffffffffffffffffffffffffffffffffffff1673ffffffffffffffffffffffffffffffffffffffff167f8be0079c531659141344cd1fd0a4f28419497f9722a3daafe3b4186f6b6457e060405160405180910390a360008060006101000a81548173ffffffffffffffffffffffffffffffffffffffff021916908373ffffffffffffffffffffffffffffffffffffffff160217905550565b600090565b60008060009054906101000a900473ffffffffffffffffffffffffffffffffffffffff16905090565b7fc357dd068c900fe20e872ba6b6b6de135a3b6fbdfe0e0cc2b8ece116c7e2fde86040516104b5906108f8565b60405180910390a1565b6060816040516020016104d29190610899565b6040516020818303038152906040529050919050565b6104f0610691565b73ffffffffffffffffffffffffffffffffffffffff1661050e61045f565b73ffffffffffffffffffffffffffffffffffffffff1614610564576040517f08c379a000000000000000000000000000000000000000000000000000000000815260040161055b90610938565b60405180910390fd5b600073ffffffffffffffffffffffffffffffffffffffff168173ffffffffffffffffffffffffffffffffffffffff1614156105d4576040517f08c379a00000000000000000000000000000000000000000000000000000000081526004016105cb90610918565b60405180910390fd5b8073ffffffffffffffffffffffffffffffffffffffff1660008054906101000a900473ffffffffffffffffffffffffffffffffffffffff1673ffffffffffffffffffffffffffffffffffffffff167f8be0079c531659141344cd1fd0a4f28419497f9722a3daafe3b4186f6b6457e060405160405180910390a3806000806101000a81548173ffffffffffffffffffffffffffffffffffffffff021916908373ffffffffffffffffffffffffffffffffffffffff16021790555050565b600033905090565b60006106ac6106a78461097d565b610958565b9050828152602081018484840111156106c8576106c7610aae565b5b6106d3848285610a07565b509392505050565b6000813590506106ea81610b98565b92915050565b600082601f83011261070557610704610aa9565b5b8135610715848260208601610699565b91505092915050565b60006020828403121561073457610733610ab8565b5b6000610742848285016106db565b91505092915050565b60006020828403121561076157610760610ab8565b5b600082013567ffffffffffffffff81111561077f5761077e610ab3565b5b61078b848285016106f0565b91505092915050565b61079d816109d5565b82525050565b60006107ae826109ae565b6107b881856109b9565b93506107c8818560208601610a16565b6107d181610abd565b840191505092915050565b60006107e7826109ae565b6107f181856109ca565b9350610801818560208601610a16565b80840191505092915050565b600061081a600a836109b9565b915061082582610ace565b602082019050919050565b600061083d6026836109b9565b915061084882610af7565b604082019050919050565b60006108606008836109ca565b915061086b82610b46565b600882019050919050565b60006108836020836109b9565b915061088e82610b6f565b602082019050919050565b60006108a482610853565b91506108b082846107dc565b915081905092915050565b60006020820190506108d06000830184610794565b92915050565b600060208201905081810360008301526108f081846107a3565b905092915050565b600060208201905081810360008301526109118161080d565b9050919050565b6000602082019050818103600083015261093181610830565b9050919050565b6000602082019050818103600083015261095181610876565b9050919050565b6000610962610973565b905061096e8282610a49565b919050565b6000604051905090565b600067ffffffffffffffff82111561099857610997610a7a565b5b6109a182610abd565b9050602081019050919050565b600081519050919050565b600082825260208201905092915050565b600081905092915050565b60006109e0826109e7565b9050919050565b600073ffffffffffffffffffffffffffffffffffffffff82169050919050565b82818337600083830152505050565b60005b83811015610a34578082015181840152602081019050610a19565b83811115610a43576000848401525b50505050565b610a5282610abd565b810181811067ffffffffffffffff82111715610a7157610a70610a7a565b5b80604052505050565b7f4e487b7100000000000000000000000000000000000000000000000000000000600052604160045260246000fd5b600080fd5b600080fd5b600080fd5b600080fd5b6000601f19601f8301169050919050565b7f66726f6d204576656e7400000000000000000000000000000000000000000000600082015250565b7f4f776e61626c653a206e6577206f776e657220697320746865207a65726f206160008201527f6464726573730000000000000000000000000000000000000000000000000000602082015250565b7f72657475726e3a20000000000000000000000000000000000000000000000000600082015250565b7f4f776e61626c653a2063616c6c6572206973206e6f7420746865206f776e6572600082015250565b610ba1816109d5565b8114610bac57600080fd5b5056fea26469706673582212206fa1d49f9036ba6e1f49fe64280fedc485c577e8ce43d9782c9812cfae3d1be964736f6c63430008050033",
  "immutableReferences": {},
  "source": "// SPDX-License-Identifier: MIT\npragma solidity >=0.8.5 <0.9.0;\npragma experimental ABIEncoderV2;\n\nimport \"@openzeppelin/contracts/access/Ownable.sol\";\n\n// To redeploy\n//npx truffle migrate --reset\ncontract TestPayable is Ownable{\n    \n    event evtEmit(string _test);\n\n    receive() external payable {} \n\n    function getOwner() pure public returns (address owner) {\n        return owner;\n    }\n\n    function passEther() public payable {\n        payable(owner()).transfer(msg.value);\n    }\n\n    function withdraw() external onlyOwner {\n        return payable(owner()).transfer(address(this).balance);\n    }\n\n    function testEmit() public {\n        emit evtEmit(\"from Event\");    \n    }\n\n    function testPayableEmit(string memory str) public {\n        emit evtEmit(str);    \n    }\n\n    function testPayableReturn(string memory str) pure public returns (string memory rtn){\n        return string(abi.encodePacked(\"return: \", str));\n    }\n    \n}",
  "sourcePath": "/home/ram4444/git/repo/TrySolidity/contracts/TestPayable.sol",
  "compiler": {
    "name": "solc",
    "version": "0.8.5+commit.a4f2e591.Emscripten.clang"
  },
  "schemaVersion": "3.4.1",
  "updatedAt": "2021-07-18T13:50:57.797Z",
  "networkType": "ethereum",
  "devdoc": {
    "kind": "dev",
    "methods": {
      "owner()": {
        "details": "Returns the address of the current owner."
      },
      "renounceOwnership()": {
        "details": "Leaves the contract without owner. It will not be possible to call `onlyOwner` functions anymore. Can only be called by the current owner. NOTE: Renouncing ownership will leave the contract without an owner, thereby removing any functionality that is only available to the owner."
      },
      "transferOwnership(address)": {
        "details": "Transfers ownership of the contract to a new account (`newOwner`). Can only be called by the current owner."
      }
    },
    "version": 1
  },
  "userdoc": {
    "kind": "user",
    "methods": {},
    "version": 1
  }
}