{
  "contractName": "TestERC20",
  "abi": [
    {
      "anonymous": false,
      "inputs": [
        {
          "indexed": true,
          "internalType": "address",
          "name": "owner",
          "type": "address"
        },
        {
          "indexed": true,
          "internalType": "address",
          "name": "spender",
          "type": "address"
        },
        {
          "indexed": false,
          "internalType": "uint256",
          "name": "value",
          "type": "uint256"
        }
      ],
      "name": "Approval",
      "type": "event"
    },
    {
      "anonymous": false,
      "inputs": [
        {
          "indexed": true,
          "internalType": "address",
          "name": "from",
          "type": "address"
        },
        {
          "indexed": true,
          "internalType": "address",
          "name": "to",
          "type": "address"
        },
        {
          "indexed": false,
          "internalType": "uint256",
          "name": "value",
          "type": "uint256"
        }
      ],
      "name": "Transfer",
      "type": "event"
    },
    {
      "inputs": [
        {
          "internalType": "address",
          "name": "owner",
          "type": "address"
        },
        {
          "internalType": "address",
          "name": "spender",
          "type": "address"
        }
      ],
      "name": "allowance",
      "outputs": [
        {
          "internalType": "uint256",
          "name": "",
          "type": "uint256"
        }
      ],
      "stateMutability": "view",
      "type": "function",
      "constant": true
    },
    {
      "inputs": [
        {
          "internalType": "address",
          "name": "spender",
          "type": "address"
        },
        {
          "internalType": "uint256",
          "name": "amount",
          "type": "uint256"
        }
      ],
      "name": "approve",
      "outputs": [
        {
          "internalType": "bool",
          "name": "",
          "type": "bool"
        }
      ],
      "stateMutability": "nonpayable",
      "type": "function"
    },
    {
      "inputs": [
        {
          "internalType": "address",
          "name": "account",
          "type": "address"
        }
      ],
      "name": "balanceOf",
      "outputs": [
        {
          "internalType": "uint256",
          "name": "",
          "type": "uint256"
        }
      ],
      "stateMutability": "view",
      "type": "function",
      "constant": true
    },
    {
      "inputs": [],
      "name": "decimals",
      "outputs": [
        {
          "internalType": "uint8",
          "name": "",
          "type": "uint8"
        }
      ],
      "stateMutability": "view",
      "type": "function",
      "constant": true
    },
    {
      "inputs": [
        {
          "internalType": "address",
          "name": "spender",
          "type": "address"
        },
        {
          "internalType": "uint256",
          "name": "subtractedValue",
          "type": "uint256"
        }
      ],
      "name": "decreaseAllowance",
      "outputs": [
        {
          "internalType": "bool",
          "name": "",
          "type": "bool"
        }
      ],
      "stateMutability": "nonpayable",
      "type": "function"
    },
    {
      "inputs": [
        {
          "internalType": "address",
          "name": "spender",
          "type": "address"
        },
        {
          "internalType": "uint256",
          "name": "addedValue",
          "type": "uint256"
        }
      ],
      "name": "increaseAllowance",
      "outputs": [
        {
          "internalType": "bool",
          "name": "",
          "type": "bool"
        }
      ],
      "stateMutability": "nonpayable",
      "type": "function"
    },
    {
      "inputs": [],
      "name": "name",
      "outputs": [
        {
          "internalType": "string",
          "name": "",
          "type": "string"
        }
      ],
      "stateMutability": "view",
      "type": "function",
      "constant": true
    },
    {
      "inputs": [],
      "name": "symbol",
      "outputs": [
        {
          "internalType": "string",
          "name": "",
          "type": "string"
        }
      ],
      "stateMutability": "view",
      "type": "function",
      "constant": true
    },
    {
      "inputs": [],
      "name": "totalSupply",
      "outputs": [
        {
          "internalType": "uint256",
          "name": "",
          "type": "uint256"
        }
      ],
      "stateMutability": "view",
      "type": "function",
      "constant": true
    },
    {
      "inputs": [
        {
          "internalType": "address",
          "name": "recipient",
          "type": "address"
        },
        {
          "internalType": "uint256",
          "name": "amount",
          "type": "uint256"
        }
      ],
      "name": "transfer",
      "outputs": [
        {
          "internalType": "bool",
          "name": "",
          "type": "bool"
        }
      ],
      "stateMutability": "nonpayable",
      "type": "function"
    },
    {
      "inputs": [
        {
          "internalType": "address",
          "name": "sender",
          "type": "address"
        },
        {
          "internalType": "address",
          "name": "recipient",
          "type": "address"
        },
        {
          "internalType": "uint256",
          "name": "amount",
          "type": "uint256"
        }
      ],
      "name": "transferFrom",
      "outputs": [
        {
          "internalType": "bool",
          "name": "",
          "type": "bool"
        }
      ],
      "stateMutability": "nonpayable",
      "type": "function"
    },
    {
      "inputs": [
        {
          "internalType": "string",
          "name": "name",
          "type": "string"
        },
        {
          "internalType": "string",
          "name": "symbol",
          "type": "string"
        },
        {
          "internalType": "uint256",
          "name": "initialSupply",
          "type": "uint256"
        }
      ],
      "name": "initialize",
      "outputs": [],
      "stateMutability": "nonpayable",
      "type": "function"
    },
    {
      "inputs": [
        {
          "internalType": "address",
          "name": "account",
          "type": "address"
        },
        {
          "internalType": "uint256",
          "name": "amount",
          "type": "uint256"
        }
      ],
      "name": "mint",
      "outputs": [],
      "stateMutability": "nonpayable",
      "type": "function"
    }
  ],
  "bytecode": "0x608060405234801561001057600080fd5b50611de0806100206000396000f3fe608060405234801561001057600080fd5b50600436106100cf5760003560e01c806340c10f191161008c578063a457c2d711610066578063a457c2d714610228578063a9059cbb14610258578063b119490e14610288578063dd62ed3e146102a4576100cf565b806340c10f19146101be57806370a08231146101da57806395d89b411461020a576100cf565b806306fdde03146100d4578063095ea7b3146100f257806318160ddd1461012257806323b872dd14610140578063313ce56714610170578063395093511461018e575b600080fd5b6100dc6102d4565b6040516100e9919061164c565b60405180910390f35b61010c600480360381019061010791906113a2565b610366565b6040516101199190611631565b60405180910390f35b61012a610384565b60405161013791906117ae565b60405180910390f35b61015a6004803603810190610155919061134f565b61038e565b6040516101679190611631565b60405180910390f35b61017861048f565b60405161018591906117c9565b60405180910390f35b6101a860048036038101906101a391906113a2565b610498565b6040516101b59190611631565b60405180910390f35b6101d860048036038101906101d391906113a2565b610544565b005b6101f460048036038101906101ef91906112e2565b610559565b60405161020191906117ae565b60405180910390f35b6102126105a2565b60405161021f919061164c565b60405180910390f35b610242600480360381019061023d91906113a2565b610634565b60405161024f9190611631565b60405180910390f35b610272600480360381019061026d91906113a2565b610728565b60405161027f9190611631565b60405180910390f35b6102a2600480360381019061029d91906113e2565b610746565b005b6102be60048036038101906102b9919061130f565b61083d565b6040516102cb91906117ae565b60405180910390f35b6060603680546102e390611977565b80601f016020809104026020016040519081016040528092919081815260200182805461030f90611977565b801561035c5780601f106103315761010080835404028352916020019161035c565b820191906000526020600020905b81548152906001019060200180831161033f57829003601f168201915b5050505050905090565b600061037a6103736108c4565b84846108cc565b6001905092915050565b6000603554905090565b600061039b848484610a97565b6000603460008673ffffffffffffffffffffffffffffffffffffffff1673ffffffffffffffffffffffffffffffffffffffff16815260200190815260200160002060006103e66108c4565b73ffffffffffffffffffffffffffffffffffffffff1673ffffffffffffffffffffffffffffffffffffffff16815260200190815260200160002054905082811015610466576040517f08c379a000000000000000000000000000000000000000000000000000000000815260040161045d906116ee565b60405180910390fd5b610483856104726108c4565b858461047e91906118ac565b6108cc565b60019150509392505050565b60006012905090565b600061053a6104a56108c4565b8484603460006104b36108c4565b73ffffffffffffffffffffffffffffffffffffffff1673ffffffffffffffffffffffffffffffffffffffff16815260200190815260200160002060008873ffffffffffffffffffffffffffffffffffffffff1673ffffffffffffffffffffffffffffffffffffffff168152602001908152602001600020546105359190611856565b6108cc565b6001905092915050565b61055561054f6108c4565b82610d19565b5050565b6000603360008373ffffffffffffffffffffffffffffffffffffffff1673ffffffffffffffffffffffffffffffffffffffff168152602001908152602001600020549050919050565b6060603780546105b190611977565b80601f01602080910402602001604051908101604052809291908181526020018280546105dd90611977565b801561062a5780601f106105ff5761010080835404028352916020019161062a565b820191906000526020600020905b81548152906001019060200180831161060d57829003601f168201915b5050505050905090565b600080603460006106436108c4565b73ffffffffffffffffffffffffffffffffffffffff1673ffffffffffffffffffffffffffffffffffffffff16815260200190815260200160002060008573ffffffffffffffffffffffffffffffffffffffff1673ffffffffffffffffffffffffffffffffffffffff16815260200190815260200160002054905082811015610700576040517f08c379a00000000000000000000000000000000000000000000000000000000081526004016106f79061176e565b60405180910390fd5b61071d61070b6108c4565b85858461071891906118ac565b6108cc565b600191505092915050565b600061073c6107356108c4565b8484610a97565b6001905092915050565b600060019054906101000a900460ff168061076c575060008054906101000a900460ff16155b6107ab576040517f08c379a00000000000000000000000000000000000000000000000000000000081526004016107a2906116ce565b60405180910390fd5b60008060019054906101000a900460ff1615905080156107fb576001600060016101000a81548160ff02191690831515021790555060016000806101000a81548160ff0219169083151502179055505b6108058484610e6e565b6108166108106108c4565b83610d19565b80156108375760008060016101000a81548160ff0219169083151502179055505b50505050565b6000603460008473ffffffffffffffffffffffffffffffffffffffff1673ffffffffffffffffffffffffffffffffffffffff16815260200190815260200160002060008373ffffffffffffffffffffffffffffffffffffffff1673ffffffffffffffffffffffffffffffffffffffff16815260200190815260200160002054905092915050565b600033905090565b600073ffffffffffffffffffffffffffffffffffffffff168373ffffffffffffffffffffffffffffffffffffffff16141561093c576040517f08c379a00000000000000000000000000000000000000000000000000000000081526004016109339061172e565b60405180910390fd5b600073ffffffffffffffffffffffffffffffffffffffff168273ffffffffffffffffffffffffffffffffffffffff1614156109ac576040517f08c379a00000000000000000000000000000000000000000000000000000000081526004016109a39061168e565b60405180910390fd5b80603460008573ffffffffffffffffffffffffffffffffffffffff1673ffffffffffffffffffffffffffffffffffffffff16815260200190815260200160002060008473ffffffffffffffffffffffffffffffffffffffff1673ffffffffffffffffffffffffffffffffffffffff168152602001908152602001600020819055508173ffffffffffffffffffffffffffffffffffffffff168373ffffffffffffffffffffffffffffffffffffffff167f8c5be1e5ebec7d5bd14f71427d1e84f3dd0314c0f7b2291e5b200ac8c7c3b92583604051610a8a91906117ae565b60405180910390a3505050565b600073ffffffffffffffffffffffffffffffffffffffff168373ffffffffffffffffffffffffffffffffffffffff161415610b07576040517f08c379a0000000000000000000000000000000000000000000000000000000008152600401610afe9061170e565b60405180910390fd5b600073ffffffffffffffffffffffffffffffffffffffff168273ffffffffffffffffffffffffffffffffffffffff161415610b77576040517f08c379a0000000000000000000000000000000000000000000000000000000008152600401610b6e9061166e565b60405180910390fd5b610b82838383610f5b565b6000603360008573ffffffffffffffffffffffffffffffffffffffff1673ffffffffffffffffffffffffffffffffffffffff16815260200190815260200160002054905081811015610c09576040517f08c379a0000000000000000000000000000000000000000000000000000000008152600401610c00906116ae565b60405180910390fd5b8181610c1591906118ac565b603360008673ffffffffffffffffffffffffffffffffffffffff1673ffffffffffffffffffffffffffffffffffffffff1681526020019081526020016000208190555081603360008573ffffffffffffffffffffffffffffffffffffffff1673ffffffffffffffffffffffffffffffffffffffff1681526020019081526020016000206000828254610ca79190611856565b925050819055508273ffffffffffffffffffffffffffffffffffffffff168473ffffffffffffffffffffffffffffffffffffffff167fddf252ad1be2c89b69c2b068fc378daa952ba7f163c4a11628f55a4df523b3ef84604051610d0b91906117ae565b60405180910390a350505050565b600073ffffffffffffffffffffffffffffffffffffffff168273ffffffffffffffffffffffffffffffffffffffff161415610d89576040517f08c379a0000000000000000000000000000000000000000000000000000000008152600401610d809061178e565b60405180910390fd5b610d9560008383610f5b565b8060356000828254610da79190611856565b9250508190555080603360008473ffffffffffffffffffffffffffffffffffffffff1673ffffffffffffffffffffffffffffffffffffffff1681526020019081526020016000206000828254610dfd9190611856565b925050819055508173ffffffffffffffffffffffffffffffffffffffff16600073ffffffffffffffffffffffffffffffffffffffff167fddf252ad1be2c89b69c2b068fc378daa952ba7f163c4a11628f55a4df523b3ef83604051610e6291906117ae565b60405180910390a35050565b600060019054906101000a900460ff1680610e94575060008054906101000a900460ff16155b610ed3576040517f08c379a0000000000000000000000000000000000000000000000000000000008152600401610eca906116ce565b60405180910390fd5b60008060019054906101000a900460ff161590508015610f23576001600060016101000a81548160ff02191690831515021790555060016000806101000a81548160ff0219169083151502179055505b610f2b610fb3565b610f35838361108c565b8015610f565760008060016101000a81548160ff0219169083151502179055505b505050565b610f66838383611195565b610f6f8261119a565b610fae576040517f08c379a0000000000000000000000000000000000000000000000000000000008152600401610fa59061174e565b60405180910390fd5b505050565b600060019054906101000a900460ff1680610fd9575060008054906101000a900460ff16155b611018576040517f08c379a000000000000000000000000000000000000000000000000000000000815260040161100f906116ce565b60405180910390fd5b60008060019054906101000a900460ff161590508015611068576001600060016101000a81548160ff02191690831515021790555060016000806101000a81548160ff0219169083151502179055505b80156110895760008060016101000a81548160ff0219169083151502179055505b50565b600060019054906101000a900460ff16806110b2575060008054906101000a900460ff16155b6110f1576040517f08c379a00000000000000000000000000000000000000000000000000000000081526004016110e8906116ce565b60405180910390fd5b60008060019054906101000a900460ff161590508015611141576001600060016101000a81548160ff02191690831515021790555060016000806101000a81548160ff0219169083151502179055505b82603690805190602001906111579291906111a5565b50816037908051906020019061116e9291906111a5565b5080156111905760008060016101000a81548160ff0219169083151502179055505b505050565b505050565b600060019050919050565b8280546111b190611977565b90600052602060002090601f0160209004810192826111d3576000855561121a565b82601f106111ec57805160ff191683800117855561121a565b8280016001018555821561121a579182015b828111156112195782518255916020019190600101906111fe565b5b509050611227919061122b565b5090565b5b8082111561124457600081600090555060010161122c565b5090565b600061125b61125684611809565b6117e4565b90508281526020810184848401111561127757611276611a6c565b5b611282848285611935565b509392505050565b60008135905061129981611d7c565b92915050565b600082601f8301126112b4576112b3611a67565b5b81356112c4848260208601611248565b91505092915050565b6000813590506112dc81611d93565b92915050565b6000602082840312156112f8576112f7611a76565b5b60006113068482850161128a565b91505092915050565b6000806040838503121561132657611325611a76565b5b60006113348582860161128a565b92505060206113458582860161128a565b9150509250929050565b60008060006060848603121561136857611367611a76565b5b60006113768682870161128a565b93505060206113878682870161128a565b9250506040611398868287016112cd565b9150509250925092565b600080604083850312156113b9576113b8611a76565b5b60006113c78582860161128a565b92505060206113d8858286016112cd565b9150509250929050565b6000806000606084860312156113fb576113fa611a76565b5b600084013567ffffffffffffffff81111561141957611418611a71565b5b6114258682870161129f565b935050602084013567ffffffffffffffff81111561144657611445611a71565b5b6114528682870161129f565b9250506040611463868287016112cd565b9150509250925092565b611476816118f2565b82525050565b60006114878261183a565b6114918185611845565b93506114a1818560208601611944565b6114aa81611a7b565b840191505092915050565b60006114c2602383611845565b91506114cd82611a8c565b604082019050919050565b60006114e5602283611845565b91506114f082611adb565b604082019050919050565b6000611508602683611845565b915061151382611b2a565b604082019050919050565b600061152b602e83611845565b915061153682611b79565b604082019050919050565b600061154e602883611845565b915061155982611bc8565b604082019050919050565b6000611571602583611845565b915061157c82611c17565b604082019050919050565b6000611594602483611845565b915061159f82611c66565b604082019050919050565b60006115b7602883611845565b91506115c282611cb5565b604082019050919050565b60006115da602583611845565b91506115e582611d04565b604082019050919050565b60006115fd601f83611845565b915061160882611d53565b602082019050919050565b61161c8161191e565b82525050565b61162b81611928565b82525050565b6000602082019050611646600083018461146d565b92915050565b60006020820190508181036000830152611666818461147c565b905092915050565b60006020820190508181036000830152611687816114b5565b9050919050565b600060208201905081810360008301526116a7816114d8565b9050919050565b600060208201905081810360008301526116c7816114fb565b9050919050565b600060208201905081810360008301526116e78161151e565b9050919050565b6000602082019050818103600083015261170781611541565b9050919050565b6000602082019050818103600083015261172781611564565b9050919050565b6000602082019050818103600083015261174781611587565b9050919050565b60006020820190508181036000830152611767816115aa565b9050919050565b60006020820190508181036000830152611787816115cd565b9050919050565b600060208201905081810360008301526117a7816115f0565b9050919050565b60006020820190506117c36000830184611613565b92915050565b60006020820190506117de6000830184611622565b92915050565b60006117ee6117ff565b90506117fa82826119a9565b919050565b6000604051905090565b600067ffffffffffffffff82111561182457611823611a38565b5b61182d82611a7b565b9050602081019050919050565b600081519050919050565b600082825260208201905092915050565b60006118618261191e565b915061186c8361191e565b9250827fffffffffffffffffffffffffffffffffffffffffffffffffffffffffffffffff038211156118a1576118a06119da565b5b828201905092915050565b60006118b78261191e565b91506118c28361191e565b9250828210156118d5576118d46119da565b5b828203905092915050565b60006118eb826118fe565b9050919050565b60008115159050919050565b600073ffffffffffffffffffffffffffffffffffffffff82169050919050565b6000819050919050565b600060ff82169050919050565b82818337600083830152505050565b60005b83811015611962578082015181840152602081019050611947565b83811115611971576000848401525b50505050565b6000600282049050600182168061198f57607f821691505b602082108114156119a3576119a2611a09565b5b50919050565b6119b282611a7b565b810181811067ffffffffffffffff821117156119d1576119d0611a38565b5b80604052505050565b7f4e487b7100000000000000000000000000000000000000000000000000000000600052601160045260246000fd5b7f4e487b7100000000000000000000000000000000000000000000000000000000600052602260045260246000fd5b7f4e487b7100000000000000000000000000000000000000000000000000000000600052604160045260246000fd5b600080fd5b600080fd5b600080fd5b600080fd5b6000601f19601f8301169050919050565b7f45524332303a207472616e7366657220746f20746865207a65726f206164647260008201527f6573730000000000000000000000000000000000000000000000000000000000602082015250565b7f45524332303a20617070726f766520746f20746865207a65726f20616464726560008201527f7373000000000000000000000000000000000000000000000000000000000000602082015250565b7f45524332303a207472616e7366657220616d6f756e742065786365656473206260008201527f616c616e63650000000000000000000000000000000000000000000000000000602082015250565b7f496e697469616c697a61626c653a20636f6e747261637420697320616c72656160008201527f647920696e697469616c697a6564000000000000000000000000000000000000602082015250565b7f45524332303a207472616e7366657220616d6f756e742065786365656473206160008201527f6c6c6f77616e6365000000000000000000000000000000000000000000000000602082015250565b7f45524332303a207472616e736665722066726f6d20746865207a65726f20616460008201527f6472657373000000000000000000000000000000000000000000000000000000602082015250565b7f45524332303a20617070726f76652066726f6d20746865207a65726f2061646460008201527f7265737300000000000000000000000000000000000000000000000000000000602082015250565b7f455243323057697468536166655472616e736665723a20696e76616c6964207260008201527f6563697069656e74000000000000000000000000000000000000000000000000602082015250565b7f45524332303a2064656372656173656420616c6c6f77616e63652062656c6f7760008201527f207a65726f000000000000000000000000000000000000000000000000000000602082015250565b7f45524332303a206d696e7420746f20746865207a65726f206164647265737300600082015250565b611d85816118e0565b8114611d9057600080fd5b50565b611d9c8161191e565b8114611da757600080fd5b5056fea2646970667358221220bbb28e4afab04222c47f29086a89127cffa4f955e530b6a8d20189833b18b46064736f6c63430008050033",
  "immutableReferences": {},
  "source": "// SPDX-License-Identifier: MIT\npragma solidity >=0.4.22 <0.9.0;\n\nimport \"@openzeppelin/contracts/token/ERC20/ERC20.sol\";\nimport \"@openzeppelin/contracts-upgradeable/proxy/utils/Initializable.sol\";\nimport \"@openzeppelin/contracts-upgradeable/token/ERC20/ERC20Upgradeable.sol\";\n\ncontract TestERC20 is ERC20Upgradeable {\n    function _beforeTokenTransfer(address from, address to, uint256 amount)\n        internal virtual override\n    {\n        super._beforeTokenTransfer(from, to, amount);\n\n        require(_validRecipient(to), \"ERC20WithSafeTransfer: invalid recipient\");\n    }\n\n    function _validRecipient(address to) private view returns (bool) {\n        return true;\n    }\n\n    function initialize(string memory name, string memory symbol, uint256 initialSupply) public virtual initializer {\n        __ERC20_init(name, symbol);\n        _mint(_msgSender(), initialSupply);\n    }\n\n    function mint(address account, uint256 amount) public  {\n        _mint(_msgSender(), amount);\n    }\n\n    \n}",
  "sourcePath": "/home/ram4444/git/repo/TrySolidity/contracts/TestERC20.sol",
  "compiler": {
    "name": "solc",
    "version": "0.8.5+commit.a4f2e591.Emscripten.clang"
  },
  "schemaVersion": "3.4.1",
  "updatedAt": "2021-07-23T13:12:00.876Z",
  "networkType": "ethereum",
  "devdoc": {
    "kind": "dev",
    "methods": {
      "allowance(address,address)": {
        "details": "See {IERC20-allowance}."
      },
      "approve(address,uint256)": {
        "details": "See {IERC20-approve}. Requirements: - `spender` cannot be the zero address."
      },
      "balanceOf(address)": {
        "details": "See {IERC20-balanceOf}."
      },
      "decimals()": {
        "details": "Returns the number of decimals used to get its user representation. For example, if `decimals` equals `2`, a balance of `505` tokens should be displayed to a user as `5,05` (`505 / 10 ** 2`). Tokens usually opt for a value of 18, imitating the relationship between Ether and Wei. This is the value {ERC20} uses, unless this function is overridden; NOTE: This information is only used for _display_ purposes: it in no way affects any of the arithmetic of the contract, including {IERC20-balanceOf} and {IERC20-transfer}."
      },
      "decreaseAllowance(address,uint256)": {
        "details": "Atomically decreases the allowance granted to `spender` by the caller. This is an alternative to {approve} that can be used as a mitigation for problems described in {IERC20-approve}. Emits an {Approval} event indicating the updated allowance. Requirements: - `spender` cannot be the zero address. - `spender` must have allowance for the caller of at least `subtractedValue`."
      },
      "increaseAllowance(address,uint256)": {
        "details": "Atomically increases the allowance granted to `spender` by the caller. This is an alternative to {approve} that can be used as a mitigation for problems described in {IERC20-approve}. Emits an {Approval} event indicating the updated allowance. Requirements: - `spender` cannot be the zero address."
      },
      "name()": {
        "details": "Returns the name of the token."
      },
      "symbol()": {
        "details": "Returns the symbol of the token, usually a shorter version of the name."
      },
      "totalSupply()": {
        "details": "See {IERC20-totalSupply}."
      },
      "transfer(address,uint256)": {
        "details": "See {IERC20-transfer}. Requirements: - `recipient` cannot be the zero address. - the caller must have a balance of at least `amount`."
      },
      "transferFrom(address,address,uint256)": {
        "details": "See {IERC20-transferFrom}. Emits an {Approval} event indicating the updated allowance. This is not required by the EIP. See the note at the beginning of {ERC20}. Requirements: - `sender` and `recipient` cannot be the zero address. - `sender` must have a balance of at least `amount`. - the caller must have allowance for ``sender``'s tokens of at least `amount`."
      }
    },
    "version": 1
  },
  "userdoc": {
    "kind": "user",
    "methods": {},
    "version": 1
  }
}