{
  "contractName": "TestPayable",
  "abi": [
    {
      "anonymous": false,
      "inputs": [
        {
          "indexed": true,
          "internalType": "address",
          "name": "previousOwner",
          "type": "address"
        },
        {
          "indexed": true,
          "internalType": "address",
          "name": "newOwner",
          "type": "address"
        }
      ],
      "name": "OwnershipTransferred",
      "type": "event"
    },
    {
      "anonymous": false,
      "inputs": [
        {
          "indexed": false,
          "internalType": "string",
          "name": "_test",
          "type": "string"
        }
      ],
      "name": "evtEmit",
      "type": "event"
    },
    {
      "inputs": [],
      "name": "owner",
      "outputs": [
        {
          "internalType": "address",
          "name": "",
          "type": "address"
        }
      ],
      "stateMutability": "view",
      "type": "function",
      "constant": true
    },
    {
      "inputs": [],
      "name": "renounceOwnership",
      "outputs": [],
      "stateMutability": "nonpayable",
      "type": "function"
    },
    {
      "inputs": [
        {
          "internalType": "address",
          "name": "newOwner",
          "type": "address"
        }
      ],
      "name": "transferOwnership",
      "outputs": [],
      "stateMutability": "nonpayable",
      "type": "function"
    },
    {
      "stateMutability": "payable",
      "type": "receive",
      "payable": true
    },
    {
      "inputs": [],
      "name": "passHalfEther",
      "outputs": [
        {
          "internalType": "uint256",
          "name": "amount",
          "type": "uint256"
        }
      ],
      "stateMutability": "payable",
      "type": "function",
      "payable": true
    },
    {
      "inputs": [],
      "name": "withdraw",
      "outputs": [],
      "stateMutability": "nonpayable",
      "type": "function"
    },
    {
      "inputs": [],
      "name": "testEmit",
      "outputs": [],
      "stateMutability": "nonpayable",
      "type": "function"
    },
    {
      "inputs": [
        {
          "internalType": "string",
          "name": "str",
          "type": "string"
        }
      ],
      "name": "testPayableEmit",
      "outputs": [],
      "stateMutability": "nonpayable",
      "type": "function"
    },
    {
      "inputs": [
        {
          "internalType": "string",
          "name": "str",
          "type": "string"
        }
      ],
      "name": "testPayableReturn",
      "outputs": [
        {
          "internalType": "string",
          "name": "rtn",
          "type": "string"
        }
      ],
      "stateMutability": "pure",
      "type": "function",
      "constant": true
    }
  ],
  "bytecode": "0x608060405234801561001057600080fd5b5060006100216100c460201b60201c565b9050806000806101000a81548173ffffffffffffffffffffffffffffffffffffffff021916908373ffffffffffffffffffffffffffffffffffffffff1602179055508073ffffffffffffffffffffffffffffffffffffffff16600073ffffffffffffffffffffffffffffffffffffffff167f8be0079c531659141344cd1fd0a4f28419497f9722a3daafe3b4186f6b6457e060405160405180910390a3506100cc565b600033905090565b610c70806100db6000396000f3fe60806040526004361061007f5760003560e01c80638da5cb5b1161004e5780638da5cb5b14610100578063db7322791461012b578063deed845914610142578063f2fde38b1461017f57610086565b8063097a0c271461008b5780633ccfd60b146100a95780636cbbc41c146100c0578063715018a6146100e957610086565b3661008657005b600080fd5b6100936101a8565b6040516100a0919061095e565b60405180910390f35b3480156100b557600080fd5b506100be610216565b005b3480156100cc57600080fd5b506100e760048036038101906100e29190610742565b6102e2565b005b3480156100f557600080fd5b506100fe61031c565b005b34801561010c57600080fd5b50610115610456565b60405161012291906108c1565b60405180910390f35b34801561013757600080fd5b5061014061047f565b005b34801561014e57600080fd5b5061016960048036038101906101649190610742565b6104b6565b60405161017691906108dc565b60405180910390f35b34801561018b57600080fd5b506101a660048036038101906101a19190610715565b6104df565b005b60006101b2610456565b73ffffffffffffffffffffffffffffffffffffffff166108fc6002346101d891906109f6565b9081150290604051600060405180830381858888f19350505050158015610203573d6000803e3d6000fd5b5060023461021191906109f6565b905090565b61021e610688565b73ffffffffffffffffffffffffffffffffffffffff1661023c610456565b73ffffffffffffffffffffffffffffffffffffffff1614610292576040517f08c379a00000000000000000000000000000000000000000000000000000000081526004016102899061093e565b60405180910390fd5b61029a610456565b73ffffffffffffffffffffffffffffffffffffffff166108fc479081150290604051600060405180830381858888f193505050501580156102df573d6000803e3d6000fd5b50565b7fc357dd068c900fe20e872ba6b6b6de135a3b6fbdfe0e0cc2b8ece116c7e2fde88160405161031191906108dc565b60405180910390a150565b610324610688565b73ffffffffffffffffffffffffffffffffffffffff16610342610456565b73ffffffffffffffffffffffffffffffffffffffff1614610398576040517f08c379a000000000000000000000000000000000000000000000000000000000815260040161038f9061093e565b60405180910390fd5b600073ffffffffffffffffffffffffffffffffffffffff1660008054906101000a900473ffffffffffffffffffffffffffffffffffffffff1673ffffffffffffffffffffffffffffffffffffffff167f8be0079c531659141344cd1fd0a4f28419497f9722a3daafe3b4186f6b6457e060405160405180910390a360008060006101000a81548173ffffffffffffffffffffffffffffffffffffffff021916908373ffffffffffffffffffffffffffffffffffffffff160217905550565b60008060009054906101000a900473ffffffffffffffffffffffffffffffffffffffff16905090565b7fc357dd068c900fe20e872ba6b6b6de135a3b6fbdfe0e0cc2b8ece116c7e2fde86040516104ac906108fe565b60405180910390a1565b6060816040516020016104c9919061089f565b6040516020818303038152906040529050919050565b6104e7610688565b73ffffffffffffffffffffffffffffffffffffffff16610505610456565b73ffffffffffffffffffffffffffffffffffffffff161461055b576040517f08c379a00000000000000000000000000000000000000000000000000000000081526004016105529061093e565b60405180910390fd5b600073ffffffffffffffffffffffffffffffffffffffff168173ffffffffffffffffffffffffffffffffffffffff1614156105cb576040517f08c379a00000000000000000000000000000000000000000000000000000000081526004016105c29061091e565b60405180910390fd5b8073ffffffffffffffffffffffffffffffffffffffff1660008054906101000a900473ffffffffffffffffffffffffffffffffffffffff1673ffffffffffffffffffffffffffffffffffffffff167f8be0079c531659141344cd1fd0a4f28419497f9722a3daafe3b4186f6b6457e060405160405180910390a3806000806101000a81548173ffffffffffffffffffffffffffffffffffffffff021916908373ffffffffffffffffffffffffffffffffffffffff16021790555050565b600033905090565b60006106a361069e8461099e565b610979565b9050828152602081018484840111156106bf576106be610b39565b5b6106ca848285610a63565b509392505050565b6000813590506106e181610c23565b92915050565b600082601f8301126106fc576106fb610b34565b5b813561070c848260208601610690565b91505092915050565b60006020828403121561072b5761072a610b43565b5b6000610739848285016106d2565b91505092915050565b60006020828403121561075857610757610b43565b5b600082013567ffffffffffffffff81111561077657610775610b3e565b5b610782848285016106e7565b91505092915050565b61079481610a27565b82525050565b60006107a5826109cf565b6107af81856109da565b93506107bf818560208601610a72565b6107c881610b48565b840191505092915050565b60006107de826109cf565b6107e881856109eb565b93506107f8818560208601610a72565b80840191505092915050565b6000610811600a836109da565b915061081c82610b59565b602082019050919050565b60006108346026836109da565b915061083f82610b82565b604082019050919050565b60006108576008836109eb565b915061086282610bd1565b600882019050919050565b600061087a6020836109da565b915061088582610bfa565b602082019050919050565b61089981610a59565b82525050565b60006108aa8261084a565b91506108b682846107d3565b915081905092915050565b60006020820190506108d6600083018461078b565b92915050565b600060208201905081810360008301526108f6818461079a565b905092915050565b6000602082019050818103600083015261091781610804565b9050919050565b6000602082019050818103600083015261093781610827565b9050919050565b600060208201905081810360008301526109578161086d565b9050919050565b60006020820190506109736000830184610890565b92915050565b6000610983610994565b905061098f8282610aa5565b919050565b6000604051905090565b600067ffffffffffffffff8211156109b9576109b8610b05565b5b6109c282610b48565b9050602081019050919050565b600081519050919050565b600082825260208201905092915050565b600081905092915050565b6000610a0182610a59565b9150610a0c83610a59565b925082610a1c57610a1b610ad6565b5b828204905092915050565b6000610a3282610a39565b9050919050565b600073ffffffffffffffffffffffffffffffffffffffff82169050919050565b6000819050919050565b82818337600083830152505050565b60005b83811015610a90578082015181840152602081019050610a75565b83811115610a9f576000848401525b50505050565b610aae82610b48565b810181811067ffffffffffffffff82111715610acd57610acc610b05565b5b80604052505050565b7f4e487b7100000000000000000000000000000000000000000000000000000000600052601260045260246000fd5b7f4e487b7100000000000000000000000000000000000000000000000000000000600052604160045260246000fd5b600080fd5b600080fd5b600080fd5b600080fd5b6000601f19601f8301169050919050565b7f66726f6d204576656e7400000000000000000000000000000000000000000000600082015250565b7f4f776e61626c653a206e6577206f776e657220697320746865207a65726f206160008201527f6464726573730000000000000000000000000000000000000000000000000000602082015250565b7f72657475726e3a20000000000000000000000000000000000000000000000000600082015250565b7f4f776e61626c653a2063616c6c6572206973206e6f7420746865206f776e6572600082015250565b610c2c81610a27565b8114610c3757600080fd5b5056fea2646970667358221220aff3b2ef19039ad3a21caa50ebd74c1687284dfae56a005970b4f563629fd01c64736f6c63430008050033",
  "immutableReferences": {},
  "source": "// SPDX-License-Identifier: MIT\npragma solidity >=0.8.5 <0.9.0;\npragma experimental ABIEncoderV2;\n\nimport \"@openzeppelin/contracts/access/Ownable.sol\";\n\n// To redeploy\n//npx truffle migrate --reset\ncontract TestPayable is Ownable{\n    \n    event evtEmit(string _test);\n\n    receive() external payable {} \n\n    function passHalfEther() public payable returns (uint amount){\n        payable(owner()).transfer(msg.value/2);\n        return msg.value/2;\n    }\n\n    function withdraw() external onlyOwner {\n        return payable(owner()).transfer(address(this).balance);\n    }\n\n    function testEmit() public {\n        emit evtEmit(\"from Event\");    \n    }\n\n    function testPayableEmit(string memory str) public {\n        emit evtEmit(str);    \n    }\n\n    function testPayableReturn(string memory str) pure public returns (string memory rtn){\n        return string(abi.encodePacked(\"return: \", str));\n    }\n    \n}",
  "sourcePath": "/home/ram4444/git/repo/TrySolidity/contracts/TestPayable.sol",
  "compiler": {
    "name": "solc",
    "version": "0.8.5+commit.a4f2e591.Emscripten.clang"
  },
  "schemaVersion": "3.4.1",
  "updatedAt": "2021-07-18T16:26:31.398Z",
  "networkType": "ethereum",
  "devdoc": {
    "kind": "dev",
    "methods": {
      "owner()": {
        "details": "Returns the address of the current owner."
      },
      "renounceOwnership()": {
        "details": "Leaves the contract without owner. It will not be possible to call `onlyOwner` functions anymore. Can only be called by the current owner. NOTE: Renouncing ownership will leave the contract without an owner, thereby removing any functionality that is only available to the owner."
      },
      "transferOwnership(address)": {
        "details": "Transfers ownership of the contract to a new account (`newOwner`). Can only be called by the current owner."
      }
    },
    "version": 1
  },
  "userdoc": {
    "kind": "user",
    "methods": {},
    "version": 1
  }
}