{
  "contractName": "TestPayable",
  "abi": [
    {
      "anonymous": false,
      "inputs": [
        {
          "indexed": true,
          "internalType": "address",
          "name": "previousOwner",
          "type": "address"
        },
        {
          "indexed": true,
          "internalType": "address",
          "name": "newOwner",
          "type": "address"
        }
      ],
      "name": "OwnershipTransferred",
      "type": "event"
    },
    {
      "anonymous": false,
      "inputs": [
        {
          "indexed": false,
          "internalType": "string",
          "name": "_test",
          "type": "string"
        }
      ],
      "name": "evtEmit",
      "type": "event"
    },
    {
      "inputs": [],
      "name": "owner",
      "outputs": [
        {
          "internalType": "address",
          "name": "",
          "type": "address"
        }
      ],
      "stateMutability": "view",
      "type": "function",
      "constant": true
    },
    {
      "inputs": [],
      "name": "renounceOwnership",
      "outputs": [],
      "stateMutability": "nonpayable",
      "type": "function"
    },
    {
      "inputs": [
        {
          "internalType": "address",
          "name": "newOwner",
          "type": "address"
        }
      ],
      "name": "transferOwnership",
      "outputs": [],
      "stateMutability": "nonpayable",
      "type": "function"
    },
    {
      "stateMutability": "payable",
      "type": "receive",
      "payable": true
    },
    {
      "inputs": [],
      "name": "passEther",
      "outputs": [],
      "stateMutability": "payable",
      "type": "function",
      "payable": true
    },
    {
      "inputs": [],
      "name": "withdraw",
      "outputs": [],
      "stateMutability": "nonpayable",
      "type": "function"
    },
    {
      "inputs": [],
      "name": "drycall",
      "outputs": [],
      "stateMutability": "nonpayable",
      "type": "function"
    },
    {
      "inputs": [],
      "name": "testEmit",
      "outputs": [],
      "stateMutability": "nonpayable",
      "type": "function"
    },
    {
      "inputs": [
        {
          "internalType": "string",
          "name": "str",
          "type": "string"
        }
      ],
      "name": "testPayableEmit",
      "outputs": [],
      "stateMutability": "nonpayable",
      "type": "function"
    }
  ],
  "bytecode": "0x608060405234801561001057600080fd5b5060006100216100c460201b60201c565b9050806000806101000a81548173ffffffffffffffffffffffffffffffffffffffff021916908373ffffffffffffffffffffffffffffffffffffffff1602179055508073ffffffffffffffffffffffffffffffffffffffff16600073ffffffffffffffffffffffffffffffffffffffff167f8be0079c531659141344cd1fd0a4f28419497f9722a3daafe3b4186f6b6457e060405160405180910390a3506100cc565b600033905090565b610ab3806100db6000396000f3fe60806040526004361061007f5760003560e01c80638da5cb5b1161004e5780638da5cb5b146100ec578063c633308814610117578063db7322791461012e578063f2fde38b1461014557610086565b80633ccfd60b1461008b57806340a9f113146100a25780636cbbc41c146100ac578063715018a6146100d557610086565b3661008657005b600080fd5b34801561009757600080fd5b506100a061016e565b005b6100aa61023a565b005b3480156100b857600080fd5b506100d360048036038101906100ce91906106c3565b61028a565b005b3480156100e157600080fd5b506100ea6102c4565b005b3480156100f857600080fd5b506101016103fe565b60405161010e91906107bd565b60405180910390f35b34801561012357600080fd5b5061012c610427565b005b34801561013a57600080fd5b50610143610429565b005b34801561015157600080fd5b5061016c60048036038101906101679190610696565b610460565b005b610176610609565b73ffffffffffffffffffffffffffffffffffffffff166101946103fe565b73ffffffffffffffffffffffffffffffffffffffff16146101ea576040517f08c379a00000000000000000000000000000000000000000000000000000000081526004016101e19061083a565b60405180910390fd5b6101f26103fe565b73ffffffffffffffffffffffffffffffffffffffff166108fc479081150290604051600060405180830381858888f19350505050158015610237573d6000803e3d6000fd5b50565b6102426103fe565b73ffffffffffffffffffffffffffffffffffffffff166108fc349081150290604051600060405180830381858888f19350505050158015610287573d6000803e3d6000fd5b50565b7fc357dd068c900fe20e872ba6b6b6de135a3b6fbdfe0e0cc2b8ece116c7e2fde8816040516102b991906107d8565b60405180910390a150565b6102cc610609565b73ffffffffffffffffffffffffffffffffffffffff166102ea6103fe565b73ffffffffffffffffffffffffffffffffffffffff1614610340576040517f08c379a00000000000000000000000000000000000000000000000000000000081526004016103379061083a565b60405180910390fd5b600073ffffffffffffffffffffffffffffffffffffffff1660008054906101000a900473ffffffffffffffffffffffffffffffffffffffff1673ffffffffffffffffffffffffffffffffffffffff167f8be0079c531659141344cd1fd0a4f28419497f9722a3daafe3b4186f6b6457e060405160405180910390a360008060006101000a81548173ffffffffffffffffffffffffffffffffffffffff021916908373ffffffffffffffffffffffffffffffffffffffff160217905550565b60008060009054906101000a900473ffffffffffffffffffffffffffffffffffffffff16905090565b565b7fc357dd068c900fe20e872ba6b6b6de135a3b6fbdfe0e0cc2b8ece116c7e2fde8604051610456906107fa565b60405180910390a1565b610468610609565b73ffffffffffffffffffffffffffffffffffffffff166104866103fe565b73ffffffffffffffffffffffffffffffffffffffff16146104dc576040517f08c379a00000000000000000000000000000000000000000000000000000000081526004016104d39061083a565b60405180910390fd5b600073ffffffffffffffffffffffffffffffffffffffff168173ffffffffffffffffffffffffffffffffffffffff16141561054c576040517f08c379a00000000000000000000000000000000000000000000000000000000081526004016105439061081a565b60405180910390fd5b8073ffffffffffffffffffffffffffffffffffffffff1660008054906101000a900473ffffffffffffffffffffffffffffffffffffffff1673ffffffffffffffffffffffffffffffffffffffff167f8be0079c531659141344cd1fd0a4f28419497f9722a3daafe3b4186f6b6457e060405160405180910390a3806000806101000a81548173ffffffffffffffffffffffffffffffffffffffff021916908373ffffffffffffffffffffffffffffffffffffffff16021790555050565b600033905090565b600061062461061f8461087f565b61085a565b9050828152602081018484840111156106405761063f6109a5565b5b61064b8482856108fe565b509392505050565b60008135905061066281610a66565b92915050565b600082601f83011261067d5761067c6109a0565b5b813561068d848260208601610611565b91505092915050565b6000602082840312156106ac576106ab6109af565b5b60006106ba84828501610653565b91505092915050565b6000602082840312156106d9576106d86109af565b5b600082013567ffffffffffffffff8111156106f7576106f66109aa565b5b61070384828501610668565b91505092915050565b610715816108cc565b82525050565b6000610726826108b0565b61073081856108bb565b935061074081856020860161090d565b610749816109b4565b840191505092915050565b6000610761600a836108bb565b915061076c826109c5565b602082019050919050565b60006107846026836108bb565b915061078f826109ee565b604082019050919050565b60006107a76020836108bb565b91506107b282610a3d565b602082019050919050565b60006020820190506107d2600083018461070c565b92915050565b600060208201905081810360008301526107f2818461071b565b905092915050565b6000602082019050818103600083015261081381610754565b9050919050565b6000602082019050818103600083015261083381610777565b9050919050565b600060208201905081810360008301526108538161079a565b9050919050565b6000610864610875565b90506108708282610940565b919050565b6000604051905090565b600067ffffffffffffffff82111561089a57610899610971565b5b6108a3826109b4565b9050602081019050919050565b600081519050919050565b600082825260208201905092915050565b60006108d7826108de565b9050919050565b600073ffffffffffffffffffffffffffffffffffffffff82169050919050565b82818337600083830152505050565b60005b8381101561092b578082015181840152602081019050610910565b8381111561093a576000848401525b50505050565b610949826109b4565b810181811067ffffffffffffffff8211171561096857610967610971565b5b80604052505050565b7f4e487b7100000000000000000000000000000000000000000000000000000000600052604160045260246000fd5b600080fd5b600080fd5b600080fd5b600080fd5b6000601f19601f8301169050919050565b7f66726f6d204576656e7400000000000000000000000000000000000000000000600082015250565b7f4f776e61626c653a206e6577206f776e657220697320746865207a65726f206160008201527f6464726573730000000000000000000000000000000000000000000000000000602082015250565b7f4f776e61626c653a2063616c6c6572206973206e6f7420746865206f776e6572600082015250565b610a6f816108cc565b8114610a7a57600080fd5b5056fea2646970667358221220ee6302ab59cd1e3a171d091883324ecc94185228ff70122dad7e2579d396468864736f6c63430008050033",
  "immutableReferences": {},
  "source": "// SPDX-License-Identifier: MIT\npragma solidity >=0.8.5 <0.9.0;\npragma experimental ABIEncoderV2;\n\nimport \"@openzeppelin/contracts/access/Ownable.sol\";\n\ncontract TestPayable is Ownable{\n    \n    event evtEmit(string _test);\n\n    receive() external payable {} \n\n    function passEther() public payable {\n        payable(owner()).transfer(msg.value);\n    }\n\n    function withdraw() external onlyOwner {\n        payable(owner()).transfer(address(this).balance);\n    }\n\n    function drycall() public {\n        \n    }\n\n    function testEmit() public {\n        emit evtEmit(\"from Event\");    \n    }\n\n    function testPayableEmit(string memory str) public {\n        emit evtEmit(str);    \n    }\n    \n}",
  "sourcePath": "/home/ram4444/git/repo/TrySolidity/contracts/TestPayable.sol",
  "compiler": {
    "name": "solc",
    "version": "0.8.5+commit.a4f2e591.Emscripten.clang"
  },
  "schemaVersion": "3.4.1",
  "updatedAt": "2021-07-13T17:51:39.645Z",
  "networkType": "ethereum",
  "devdoc": {
    "kind": "dev",
    "methods": {
      "owner()": {
        "details": "Returns the address of the current owner."
      },
      "renounceOwnership()": {
        "details": "Leaves the contract without owner. It will not be possible to call `onlyOwner` functions anymore. Can only be called by the current owner. NOTE: Renouncing ownership will leave the contract without an owner, thereby removing any functionality that is only available to the owner."
      },
      "transferOwnership(address)": {
        "details": "Transfers ownership of the contract to a new account (`newOwner`). Can only be called by the current owner."
      }
    },
    "version": 1
  },
  "userdoc": {
    "kind": "user",
    "methods": {},
    "version": 1
  }
}